{
  "contractName": "SecurityToken",
  "abi": [
    {
      "constant": true,
      "inputs": [],
      "name": "name",
      "outputs": [
        {
          "name": "",
          "type": "string"
        }
      ],
      "payable": false,
      "stateMutability": "view",
      "type": "function"
    },
    {
      "constant": true,
      "inputs": [
        {
          "name": "_tokenId",
          "type": "uint256"
        }
      ],
      "name": "getApproved",
      "outputs": [
        {
          "name": "",
          "type": "address"
        }
      ],
      "payable": false,
      "stateMutability": "view",
      "type": "function"
    },
    {
      "constant": false,
      "inputs": [
        {
          "name": "_to",
          "type": "address"
        },
        {
          "name": "_tokenId",
          "type": "uint256"
        }
      ],
      "name": "approve",
      "outputs": [],
      "payable": false,
      "stateMutability": "nonpayable",
      "type": "function"
    },
    {
      "constant": true,
      "inputs": [],
      "name": "totalSupply",
      "outputs": [
        {
          "name": "",
          "type": "uint256"
        }
      ],
      "payable": false,
      "stateMutability": "view",
      "type": "function"
    },
    {
      "constant": true,
      "inputs": [
        {
          "name": "",
          "type": "address"
        }
      ],
      "name": "sharesBalance",
      "outputs": [
        {
          "name": "",
          "type": "uint256"
        }
      ],
      "payable": false,
      "stateMutability": "view",
      "type": "function"
    },
    {
      "constant": false,
      "inputs": [
        {
          "name": "_from",
          "type": "address"
        },
        {
          "name": "_to",
          "type": "address"
        },
        {
          "name": "_tokenId",
          "type": "uint256"
        }
      ],
      "name": "transferFrom",
      "outputs": [],
      "payable": false,
      "stateMutability": "nonpayable",
      "type": "function"
    },
    {
      "constant": true,
      "inputs": [
        {
          "name": "_owner",
          "type": "address"
        },
        {
          "name": "_index",
          "type": "uint256"
        }
      ],
      "name": "tokenOfOwnerByIndex",
      "outputs": [
        {
          "name": "",
          "type": "uint256"
        }
      ],
      "payable": false,
      "stateMutability": "view",
      "type": "function"
    },
    {
      "constant": true,
      "inputs": [],
      "name": "regType",
      "outputs": [
        {
          "name": "",
          "type": "bytes32"
        }
      ],
      "payable": false,
      "stateMutability": "view",
      "type": "function"
    },
    {
      "constant": true,
      "inputs": [
        {
          "name": "_tokenId",
          "type": "uint256"
        }
      ],
      "name": "exists",
      "outputs": [
        {
          "name": "",
          "type": "bool"
        }
      ],
      "payable": false,
      "stateMutability": "view",
      "type": "function"
    },
    {
      "constant": true,
      "inputs": [
        {
          "name": "_index",
          "type": "uint256"
        }
      ],
      "name": "tokenByIndex",
      "outputs": [
        {
          "name": "",
          "type": "uint256"
        }
      ],
      "payable": false,
      "stateMutability": "view",
      "type": "function"
    },
    {
      "constant": true,
      "inputs": [
        {
          "name": "",
          "type": "uint256"
        }
      ],
      "name": "shares",
      "outputs": [
        {
          "name": "legend",
          "type": "string"
        },
        {
          "name": "value",
          "type": "uint256"
        },
        {
          "name": "restricted",
          "type": "bool"
        },
        {
          "name": "mintDate",
          "type": "uint256"
        },
        {
          "name": "lastTransferDate",
          "type": "uint256"
        },
        {
          "name": "holdingPeriodEnd",
          "type": "uint256"
        },
        {
          "name": "jurisdiction",
          "type": "bytes32"
        }
      ],
      "payable": false,
      "stateMutability": "view",
      "type": "function"
    },
    {
      "constant": true,
      "inputs": [
        {
          "name": "",
          "type": "address"
        }
      ],
      "name": "shareholders",
      "outputs": [
        {
          "name": "sellLockupEnd",
          "type": "uint256"
        },
        {
          "name": "buyLockupEnd",
          "type": "uint256"
        },
        {
          "name": "jurisdiction",
          "type": "bytes32"
        },
        {
          "name": "isAffiliate",
          "type": "bool"
        },
        {
          "name": "status",
          "type": "uint8"
        }
      ],
      "payable": false,
      "stateMutability": "view",
      "type": "function"
    },
    {
      "constant": true,
      "inputs": [
        {
          "name": "_tokenId",
          "type": "uint256"
        }
      ],
      "name": "ownerOf",
      "outputs": [
        {
          "name": "",
          "type": "address"
        }
      ],
      "payable": false,
      "stateMutability": "view",
      "type": "function"
    },
    {
      "constant": true,
      "inputs": [
        {
          "name": "_owner",
          "type": "address"
        }
      ],
      "name": "balanceOf",
      "outputs": [
        {
          "name": "",
          "type": "uint256"
        }
      ],
      "payable": false,
      "stateMutability": "view",
      "type": "function"
    },
    {
      "constant": true,
      "inputs": [],
      "name": "defaultHoldingPeriod",
      "outputs": [
        {
          "name": "",
          "type": "uint256"
        }
      ],
      "payable": false,
      "stateMutability": "view",
      "type": "function"
    },
    {
      "constant": true,
      "inputs": [],
      "name": "jurisdiction",
      "outputs": [
        {
          "name": "",
          "type": "bytes32"
        }
      ],
      "payable": false,
      "stateMutability": "view",
      "type": "function"
    },
    {
      "constant": true,
      "inputs": [],
      "name": "owner",
      "outputs": [
        {
          "name": "",
          "type": "address"
        }
      ],
      "payable": false,
      "stateMutability": "view",
      "type": "function"
    },
    {
      "constant": true,
      "inputs": [],
      "name": "symbol",
      "outputs": [
        {
          "name": "",
          "type": "string"
        }
      ],
      "payable": false,
      "stateMutability": "view",
      "type": "function"
    },
    {
      "constant": false,
      "inputs": [
        {
          "name": "_to",
          "type": "address"
        },
        {
          "name": "_approved",
          "type": "bool"
        }
      ],
      "name": "setApprovalForAll",
      "outputs": [],
      "payable": false,
      "stateMutability": "nonpayable",
      "type": "function"
    },
    {
      "constant": true,
      "inputs": [],
      "name": "comformsToRule144",
      "outputs": [
        {
          "name": "",
          "type": "bool"
        }
      ],
      "payable": false,
      "stateMutability": "view",
      "type": "function"
    },
    {
      "constant": true,
      "inputs": [
        {
          "name": "_tokenId",
          "type": "uint256"
        }
      ],
      "name": "tokenURI",
      "outputs": [
        {
          "name": "",
          "type": "string"
        }
      ],
      "payable": false,
      "stateMutability": "view",
      "type": "function"
    },
    {
      "constant": true,
      "inputs": [
        {
          "name": "_owner",
          "type": "address"
        },
        {
          "name": "_operator",
          "type": "address"
        }
      ],
      "name": "isApprovedForAll",
      "outputs": [
        {
          "name": "",
          "type": "bool"
        }
      ],
      "payable": false,
      "stateMutability": "view",
      "type": "function"
    },
    {
      "constant": false,
      "inputs": [
        {
          "name": "newOwner",
          "type": "address"
        }
      ],
      "name": "transferOwnership",
      "outputs": [],
      "payable": false,
      "stateMutability": "nonpayable",
      "type": "function"
    },
    {
      "inputs": [
        {
          "name": "_name",
          "type": "string"
        },
        {
          "name": "_symbol",
          "type": "string"
        }
      ],
      "payable": false,
      "stateMutability": "nonpayable",
      "type": "constructor"
    },
    {
      "anonymous": false,
      "inputs": [
        {
          "indexed": true,
          "name": "previousOwner",
          "type": "address"
        },
        {
          "indexed": true,
          "name": "newOwner",
          "type": "address"
        }
      ],
      "name": "OwnershipTransferred",
      "type": "event"
    },
    {
      "anonymous": false,
      "inputs": [
        {
          "indexed": true,
          "name": "_from",
          "type": "address"
        },
        {
          "indexed": true,
          "name": "_to",
          "type": "address"
        },
        {
          "indexed": false,
          "name": "_tokenId",
          "type": "uint256"
        }
      ],
      "name": "Transfer",
      "type": "event"
    },
    {
      "anonymous": false,
      "inputs": [
        {
          "indexed": true,
          "name": "_owner",
          "type": "address"
        },
        {
          "indexed": true,
          "name": "_approved",
          "type": "address"
        },
        {
          "indexed": false,
          "name": "_tokenId",
          "type": "uint256"
        }
      ],
      "name": "Approval",
      "type": "event"
    },
    {
      "anonymous": false,
      "inputs": [
        {
          "indexed": true,
          "name": "_owner",
          "type": "address"
        },
        {
          "indexed": true,
          "name": "_operator",
          "type": "address"
        },
        {
          "indexed": false,
          "name": "_approved",
          "type": "bool"
        }
      ],
      "name": "ApprovalForAll",
      "type": "event"
    },
    {
      "constant": false,
      "inputs": [
        {
          "name": "_shareholder",
          "type": "address"
        },
        {
          "name": "_legend",
          "type": "string"
        },
        {
          "name": "_value",
          "type": "uint256"
        },
        {
          "name": "_restricted",
          "type": "bool"
        }
      ],
      "name": "mint",
      "outputs": [],
      "payable": false,
      "stateMutability": "nonpayable",
      "type": "function"
    },
    {
      "constant": false,
      "inputs": [
        {
          "name": "_sharesId",
          "type": "uint256"
        },
        {
          "name": "_newLegend",
          "type": "string"
        }
      ],
      "name": "scrubLegendBySharesId",
      "outputs": [],
      "payable": false,
      "stateMutability": "nonpayable",
      "type": "function"
    },
    {
      "constant": false,
      "inputs": [
        {
          "name": "_from",
          "type": "address"
        },
        {
          "name": "_to",
          "type": "address"
        },
        {
          "name": "_tokenId",
          "type": "uint256"
        }
      ],
      "name": "safeTransferFrom",
      "outputs": [],
      "payable": false,
      "stateMutability": "nonpayable",
      "type": "function"
    },
    {
      "constant": false,
      "inputs": [
        {
          "name": "_from",
          "type": "address"
        },
        {
          "name": "_to",
          "type": "address"
        },
        {
          "name": "_tokenId",
          "type": "uint256"
        },
        {
          "name": "_data",
          "type": "bytes"
        }
      ],
      "name": "safeTransferFrom",
      "outputs": [],
      "payable": false,
      "stateMutability": "nonpayable",
      "type": "function"
    },
    {
      "constant": true,
      "inputs": [
        {
          "name": "_sharesId",
          "type": "uint256"
        }
      ],
      "name": "getSharesData",
      "outputs": [
        {
          "name": "",
          "type": "string"
        },
        {
          "name": "",
          "type": "uint256"
        },
        {
          "name": "",
          "type": "bool"
        },
        {
          "name": "",
          "type": "uint256"
        },
        {
          "name": "",
          "type": "uint256"
        },
        {
          "name": "",
          "type": "uint256"
        },
        {
          "name": "",
          "type": "bytes32"
        }
      ],
      "payable": false,
      "stateMutability": "view",
      "type": "function"
    },
    {
      "constant": false,
      "inputs": [
        {
          "name": "_shareholder",
          "type": "address"
        },
        {
          "name": "_sellLockupEnd",
          "type": "uint256"
        },
        {
          "name": "_buyLockupEnd",
          "type": "uint256"
        },
        {
          "name": "_jurisdiction",
          "type": "bytes32"
        },
        {
          "name": "_isAffiliate",
          "type": "bool"
        },
        {
          "name": "_status",
          "type": "uint8"
        }
      ],
      "name": "modifyWhitelist",
      "outputs": [],
      "payable": false,
      "stateMutability": "nonpayable",
      "type": "function"
    },
    {
      "constant": true,
      "inputs": [
        {
          "name": "_from",
          "type": "address"
        },
        {
          "name": "_to",
          "type": "address"
        }
      ],
      "name": "verifyTransferByShareholders",
      "outputs": [
        {
          "name": "",
          "type": "bool"
        }
      ],
      "payable": false,
      "stateMutability": "view",
      "type": "function"
    },
    {
      "constant": true,
      "inputs": [
        {
          "name": "_from",
          "type": "address"
        },
        {
          "name": "_to",
          "type": "address"
        },
        {
          "name": "_sharesId",
          "type": "uint256"
        }
      ],
      "name": "verifyTransferByShares",
      "outputs": [
        {
          "name": "",
          "type": "bool"
        }
      ],
      "payable": false,
      "stateMutability": "view",
      "type": "function"
    }
  ],
  "bytecode": "0x60806040527f5553000000000000000000000000000000000000000000000000000000000000600c906000191690557f5265672053000000000000000000000000000000000000000000000000000000600d906000191690556301e13380600e556001600f60006101000a81548160ff0219169083151502179055503480156200008857600080fd5b506040516200373a3803806200373a833981018060405281019080805182019291906020018051820192919050505081818160049080519060200190620000d192919062000136565b508060059080519060200190620000ea92919062000136565b50505033600b60006101000a81548173ffffffffffffffffffffffffffffffffffffffff021916908373ffffffffffffffffffffffffffffffffffffffff1602179055505050620001e5565b828054600181600116156101000203166002900490600052602060002090601f016020900481019282601f106200017957805160ff1916838001178555620001aa565b82800160010185558215620001aa579182015b82811115620001a95782518255916020019190600101906200018c565b5b509050620001b99190620001bd565b5090565b620001e291905b80821115620001de576000816000905550600101620001c4565b5090565b90565b61354580620001f56000396000f30060806040526004361061018b576000357c0100000000000000000000000000000000000000000000000000000000900463ffffffff16806306fdde0314610190578063081812fc14610220578063095ea7b31461028d57806318160ddd146102da57806320fb1afa1461030557806323b872dd1461035c5780632f745c59146103c95780633172ec911461042a57806342842e0e1461049d5780634dddd5681461050a5780634f558e791461053d5780634f6ccce71461058257806357a858fc146105c35780635c2930ad1461069f5780636352211e1461072457806370a0823114610791578063765c5d32146107e8578063823bb1a314610863578063826a5d561461088e57806382ee06f5146108c15780638bfd4d471461099d5780638da5cb5b14610a2257806395d89b4114610a79578063a22cb46514610b09578063a85cf09f14610b58578063af934caa14610b87578063b88d4fde14610c05578063c87b56dd14610cb8578063cd2ac3f114610d5e578063e985e9c514610dfd578063f2fde38b14610e78575b600080fd5b34801561019c57600080fd5b506101a5610ebb565b6040518080602001828103825283818151815260200191508051906020019080838360005b838110156101e55780820151818401526020810190506101ca565b50505050905090810190601f1680156102125780820380516001836020036101000a031916815260200191505b509250505060405180910390f35b34801561022c57600080fd5b5061024b60048036038101908080359060200190929190505050610f5d565b604051808273ffffffffffffffffffffffffffffffffffffffff1673ffffffffffffffffffffffffffffffffffffffff16815260200191505060405180910390f35b34801561029957600080fd5b506102d8600480360381019080803573ffffffffffffffffffffffffffffffffffffffff16906020019092919080359060200190929190505050610f9a565b005b3480156102e657600080fd5b506102ef611160565b6040518082815260200191505060405180910390f35b34801561031157600080fd5b50610346600480360381019080803573ffffffffffffffffffffffffffffffffffffffff16906020019092919050505061116d565b6040518082815260200191505060405180910390f35b34801561036857600080fd5b506103c7600480360381019080803573ffffffffffffffffffffffffffffffffffffffff169060200190929190803573ffffffffffffffffffffffffffffffffffffffff16906020019092919080359060200190929190505050611185565b005b3480156103d557600080fd5b50610414600480360381019080803573ffffffffffffffffffffffffffffffffffffffff1690602001909291908035906020019092919050505061129c565b6040518082815260200191505060405180910390f35b34801561043657600080fd5b5061049b60048036038101908080359060200190929190803590602001908201803590602001908080601f0160208091040260200160405190810160405280939291908181526020018383808284378201915050505050509192919290505050611313565b005b3480156104a957600080fd5b50610508600480360381019080803573ffffffffffffffffffffffffffffffffffffffff169060200190929190803573ffffffffffffffffffffffffffffffffffffffff169060200190929190803590602001909291905050506113ae565b005b34801561051657600080fd5b5061051f611517565b60405180826000191660001916815260200191505060405180910390f35b34801561054957600080fd5b506105686004803603810190808035906020019092919050505061151d565b604051808215151515815260200191505060405180910390f35b34801561058e57600080fd5b506105ad6004803603810190808035906020019092919050505061158e565b6040518082815260200191505060405180910390f35b3480156105cf57600080fd5b506105ee600480360381019080803590602001909291905050506115c6565b6040518080602001888152602001871515151581526020018681526020018581526020018481526020018360001916600019168152602001828103825289818151815260200191508051906020019080838360005b8381101561065e578082015181840152602081019050610643565b50505050905090810190601f16801561068b5780820380516001836020036101000a031916815260200191505b509850505050505050505060405180910390f35b3480156106ab57600080fd5b506106e0600480360381019080803573ffffffffffffffffffffffffffffffffffffffff1690602001909291905050506116bc565b604051808681526020018581526020018460001916600019168152602001831515151581526020018260ff1660ff1681526020019550505050505060405180910390f35b34801561073057600080fd5b5061074f6004803603810190808035906020019092919050505061170c565b604051808273ffffffffffffffffffffffffffffffffffffffff1673ffffffffffffffffffffffffffffffffffffffff16815260200191505060405180910390f35b34801561079d57600080fd5b506107d2600480360381019080803573ffffffffffffffffffffffffffffffffffffffff169060200190929190505050611789565b6040518082815260200191505060405180910390f35b3480156107f457600080fd5b50610849600480360381019080803573ffffffffffffffffffffffffffffffffffffffff169060200190929190803573ffffffffffffffffffffffffffffffffffffffff16906020019092919050505061180d565b604051808215151515815260200191505060405180910390f35b34801561086f57600080fd5b5061087861192e565b6040518082815260200191505060405180910390f35b34801561089a57600080fd5b506108a3611934565b60405180826000191660001916815260200191505060405180910390f35b3480156108cd57600080fd5b506108ec6004803603810190808035906020019092919050505061193a565b6040518080602001888152602001871515151581526020018681526020018581526020018481526020018360001916600019168152602001828103825289818151815260200191508051906020019080838360005b8381101561095c578082015181840152602081019050610941565b50505050905090810190601f1680156109895780820380516001836020036101000a031916815260200191505b509850505050505050505060405180910390f35b3480156109a957600080fd5b50610a08600480360381019080803573ffffffffffffffffffffffffffffffffffffffff169060200190929190803573ffffffffffffffffffffffffffffffffffffffff16906020019092919080359060200190929190505050611aaf565b604051808215151515815260200191505060405180910390f35b348015610a2e57600080fd5b50610a37611c08565b604051808273ffffffffffffffffffffffffffffffffffffffff1673ffffffffffffffffffffffffffffffffffffffff16815260200191505060405180910390f35b348015610a8557600080fd5b50610a8e611c2e565b6040518080602001828103825283818151815260200191508051906020019080838360005b83811015610ace578082015181840152602081019050610ab3565b50505050905090810190601f168015610afb5780820380516001836020036101000a031916815260200191505b509250505060405180910390f35b348015610b1557600080fd5b50610b56600480360381019080803573ffffffffffffffffffffffffffffffffffffffff169060200190929190803515159060200190929190505050611cd0565b005b348015610b6457600080fd5b50610b6d611e0c565b604051808215151515815260200191505060405180910390f35b348015610b9357600080fd5b50610c03600480360381019080803573ffffffffffffffffffffffffffffffffffffffff16906020019092919080359060200190929190803590602001909291908035600019169060200190929190803515159060200190929190803560ff169060200190929190505050611e1f565b005b348015610c1157600080fd5b50610cb6600480360381019080803573ffffffffffffffffffffffffffffffffffffffff169060200190929190803573ffffffffffffffffffffffffffffffffffffffff16906020019092919080359060200190929190803590602001908201803590602001908080601f0160208091040260200160405190810160405280939291908181526020018383808284378201915050505050509192919290505050611f5b565b005b348015610cc457600080fd5b50610ce360048036038101908080359060200190929190505050611f9a565b6040518080602001828103825283818151815260200191508051906020019080838360005b83811015610d23578082015181840152602081019050610d08565b50505050905090810190601f168015610d505780820380516001836020036101000a031916815260200191505b509250505060405180910390f35b348015610d6a57600080fd5b50610dfb600480360381019080803573ffffffffffffffffffffffffffffffffffffffff169060200190929190803590602001908201803590602001908080601f016020809104026020016040519081016040528093929190818152602001838380828437820191505050505050919291929080359060200190929190803515159060200190929190505050612063565b005b348015610e0957600080fd5b50610e5e600480360381019080803573ffffffffffffffffffffffffffffffffffffffff169060200190929190803573ffffffffffffffffffffffffffffffffffffffff1690602001909291905050506122ea565b604051808215151515815260200191505060405180910390f35b348015610e8457600080fd5b50610eb9600480360381019080803573ffffffffffffffffffffffffffffffffffffffff16906020019092919050505061237e565b005b606060048054600181600116156101000203166002900480601f016020809104026020016040519081016040528092919081815260200182805460018160011615610100020316600290048015610f535780601f10610f2857610100808354040283529160200191610f53565b820191906000526020600020905b815481529060010190602001808311610f3657829003601f168201915b5050505050905090565b60006001600083815260200190815260200160002060009054906101000a900473ffffffffffffffffffffffffffffffffffffffff169050919050565b6000610fa58261170c565b90508073ffffffffffffffffffffffffffffffffffffffff168373ffffffffffffffffffffffffffffffffffffffff1614151515610fe257600080fd5b8073ffffffffffffffffffffffffffffffffffffffff163373ffffffffffffffffffffffffffffffffffffffff161480611022575061102181336122ea565b5b151561102d57600080fd5b600073ffffffffffffffffffffffffffffffffffffffff1661104e83610f5d565b73ffffffffffffffffffffffffffffffffffffffff1614158061109e5750600073ffffffffffffffffffffffffffffffffffffffff168373ffffffffffffffffffffffffffffffffffffffff1614155b1561115b57826001600084815260200190815260200160002060006101000a81548173ffffffffffffffffffffffffffffffffffffffff021916908373ffffffffffffffffffffffffffffffffffffffff1602179055508273ffffffffffffffffffffffffffffffffffffffff168173ffffffffffffffffffffffffffffffffffffffff167f8c5be1e5ebec7d5bd14f71427d1e84f3dd0314c0f7b2291e5b200ac8c7c3b925846040518082815260200191505060405180910390a35b505050565b6000600880549050905090565b60116020528060005260406000206000915090505481565b8061119033826124d6565b151561119b57600080fd5b600073ffffffffffffffffffffffffffffffffffffffff168473ffffffffffffffffffffffffffffffffffffffff16141515156111d757600080fd5b600073ffffffffffffffffffffffffffffffffffffffff168373ffffffffffffffffffffffffffffffffffffffff161415151561121357600080fd5b61121d848361256b565b61122784836126d4565b61123183836128ec565b8273ffffffffffffffffffffffffffffffffffffffff168473ffffffffffffffffffffffffffffffffffffffff167fddf252ad1be2c89b69c2b068fc378daa952ba7f163c4a11628f55a4df523b3ef846040518082815260200191505060405180910390a350505050565b60006112a783611789565b821015156112b457600080fd5b600660008473ffffffffffffffffffffffffffffffffffffffff1673ffffffffffffffffffffffffffffffffffffffff1681526020019081526020016000208281548110151561130057fe5b9060005260206000200154905092915050565b6000600b60009054906101000a900473ffffffffffffffffffffffffffffffffffffffff1673ffffffffffffffffffffffffffffffffffffffff163373ffffffffffffffffffffffffffffffffffffffff1614151561137157600080fd5b60108381548110151561138057fe5b90600052602060002090600702019050818160000190805190602001906113a892919061334d565b50505050565b6113b8838361180d565b1515611452576040517f08c379a00000000000000000000000000000000000000000000000000000000081526004018080602001828103825260218152602001807f5472616e73666572206973206e6f742076616c6964202d2057686974656c697381526020017f740000000000000000000000000000000000000000000000000000000000000081525060400191505060405180910390fd5b61145d838383611aaf565b15156114d1576040517f08c379a000000000000000000000000000000000000000000000000000000000815260040180806020018281038252601e8152602001807f5472616e73666572206973206e6f742076616c6964202d20536861726573000081525060200191505060405180910390fd5b6114fc83836010848154811015156114e557fe5b9060005260206000209060070201600101546129c3565b611507838383612af2565b611512838383612cf3565b505050565b600d5481565b60008060008084815260200190815260200160002060009054906101000a900473ffffffffffffffffffffffffffffffffffffffff169050600073ffffffffffffffffffffffffffffffffffffffff168173ffffffffffffffffffffffffffffffffffffffff161415915050919050565b6000611598611160565b821015156115a557600080fd5b6008828154811015156115b457fe5b90600052602060002001549050919050565b6010818154811015156115d557fe5b9060005260206000209060070201600091509050806000018054600181600116156101000203166002900480601f0160208091040260200160405190810160405280929190818152602001828054600181600116156101000203166002900480156116815780601f1061165657610100808354040283529160200191611681565b820191906000526020600020905b81548152906001019060200180831161166457829003601f168201915b5050505050908060010154908060020160009054906101000a900460ff16908060030154908060040154908060050154908060060154905087565b60126020528060005260406000206000915090508060000154908060010154908060020154908060030160009054906101000a900460ff16908060030160019054906101000a900460ff16905085565b60008060008084815260200190815260200160002060009054906101000a900473ffffffffffffffffffffffffffffffffffffffff169050600073ffffffffffffffffffffffffffffffffffffffff168173ffffffffffffffffffffffffffffffffffffffff161415151561178057600080fd5b80915050919050565b60008073ffffffffffffffffffffffffffffffffffffffff168273ffffffffffffffffffffffffffffffffffffffff16141515156117c657600080fd5b600260008373ffffffffffffffffffffffffffffffffffffffff1673ffffffffffffffffffffffffffffffffffffffff168152602001908152602001600020549050919050565b60003073ffffffffffffffffffffffffffffffffffffffff168373ffffffffffffffffffffffffffffffffffffffff1614156118615761184c82612d2b565b61185757600061185a565b60015b9050611928565b61186a83612d2b565b80156118b8575042601260008573ffffffffffffffffffffffffffffffffffffffff1673ffffffffffffffffffffffffffffffffffffffff1681526020019081526020016000206000015411155b801561191757506118c882612d2b565b8015611916575042601260008473ffffffffffffffffffffffffffffffffffffffff1673ffffffffffffffffffffffffffffffffffffffff1681526020019081526020016000206001015411155b5b611922576000611925565b60015b90505b92915050565b600e5481565b600c5481565b606060008060008060008061194d6133cd565b60108981548110151561195c57fe5b906000526020600020906007020160e06040519081016040529081600082018054600181600116156101000203166002900480601f016020809104026020016040519081016040528092919081815260200182805460018160011615610100020316600290048015611a0f5780601f106119e457610100808354040283529160200191611a0f565b820191906000526020600020905b8154815290600101906020018083116119f257829003601f168201915b50505050508152602001600182015481526020016002820160009054906101000a900460ff1615151515815260200160038201548152602001600482015481526020016005820154815260200160068201546000191660001916815250509050806000015181602001518260400151836060015184608001518560a001518660c00151869650975097509750975097509750975050919395979092949650565b6000611ab96133cd565b601083815481101515611ac857fe5b906000526020600020906007020160e06040519081016040529081600082018054600181600116156101000203166002900480601f016020809104026020016040519081016040528092919081815260200182805460018160011615610100020316600290048015611b7b5780601f10611b5057610100808354040283529160200191611b7b565b820191906000526020600020905b815481529060010190602001808311611b5e57829003601f168201915b50505050508152602001600182015481526020016002820160009054906101000a900460ff1615151515815260200160038201548152602001600482015481526020016005820154815260200160068201546000191660001916815250509050806040015115611bfb578060a00151421015611bfa5760009150611c00565b5b600191505b509392505050565b600b60009054906101000a900473ffffffffffffffffffffffffffffffffffffffff1681565b606060058054600181600116156101000203166002900480601f016020809104026020016040519081016040528092919081815260200182805460018160011615610100020316600290048015611cc65780601f10611c9b57610100808354040283529160200191611cc6565b820191906000526020600020905b815481529060010190602001808311611ca957829003601f168201915b5050505050905090565b3373ffffffffffffffffffffffffffffffffffffffff168273ffffffffffffffffffffffffffffffffffffffff1614151515611d0b57600080fd5b80600360003373ffffffffffffffffffffffffffffffffffffffff1673ffffffffffffffffffffffffffffffffffffffff16815260200190815260200160002060008473ffffffffffffffffffffffffffffffffffffffff1673ffffffffffffffffffffffffffffffffffffffff16815260200190815260200160002060006101000a81548160ff0219169083151502179055508173ffffffffffffffffffffffffffffffffffffffff163373ffffffffffffffffffffffffffffffffffffffff167f17307eab39ab6107e8899845ad3d59bd9653f200f220920489ca2b5937696c3183604051808215151515815260200191505060405180910390a35050565b600f60009054906101000a900460ff1681565b600b60009054906101000a900473ffffffffffffffffffffffffffffffffffffffff1673ffffffffffffffffffffffffffffffffffffffff163373ffffffffffffffffffffffffffffffffffffffff16141515611e7b57600080fd5b60a0604051908101604052808681526020018581526020018460001916815260200183151581526020018260ff16815250601260008873ffffffffffffffffffffffffffffffffffffffff1673ffffffffffffffffffffffffffffffffffffffff16815260200190815260200160002060008201518160000155602082015181600101556040820151816002019060001916905560608201518160030160006101000a81548160ff02191690831515021790555060808201518160030160016101000a81548160ff021916908360ff160217905550905050505050505050565b81611f6633826124d6565b1515611f7157600080fd5b611f7c858585611185565b611f8885858585612d8a565b1515611f9357600080fd5b5050505050565b6060611fa58261151d565b1515611fb057600080fd5b600a60008381526020019081526020016000208054600181600116156101000203166002900480601f0160208091040260200160405190810160405280929190818152602001828054600181600116156101000203166002900480156120575780601f1061202c57610100808354040283529160200191612057565b820191906000526020600020905b81548152906001019060200180831161203a57829003601f168201915b50505050509050919050565b61206b6133cd565b6000600b60009054906101000a900473ffffffffffffffffffffffffffffffffffffffff1673ffffffffffffffffffffffffffffffffffffffff163373ffffffffffffffffffffffffffffffffffffffff161415156120c957600080fd5b6120d3308761180d565b1515612147576040517f08c379a00000000000000000000000000000000000000000000000000000000081526004018080602001828103825260158152602001807f5472616e73666572206973206e6f742076616c6964000000000000000000000081525060200191505060405180910390fd5b60e0604051908101604052808681526020018581526020018415158152602001428152602001428152602001612188600e5442612f7890919063ffffffff16565b8152602001600c5460001916815250915060016010839080600181540180825580915050906001820390600052602060002090600702016000909192909190915060008201518160000190805190602001906121e5929190613410565b506020820151816001015560408201518160020160006101000a81548160ff021916908315150217905550606082015181600301556080820151816004015560a0820151816005015560c08201518160060190600019169055505003905061229584601160008973ffffffffffffffffffffffffffffffffffffffff1673ffffffffffffffffffffffffffffffffffffffff16815260200190815260200160002054612f7890919063ffffffff16565b601160008873ffffffffffffffffffffffffffffffffffffffff1673ffffffffffffffffffffffffffffffffffffffff168152602001908152602001600020819055506122e28682612f94565b505050505050565b6000600360008473ffffffffffffffffffffffffffffffffffffffff1673ffffffffffffffffffffffffffffffffffffffff16815260200190815260200160002060008373ffffffffffffffffffffffffffffffffffffffff1673ffffffffffffffffffffffffffffffffffffffff16815260200190815260200160002060009054906101000a900460ff16905092915050565b600b60009054906101000a900473ffffffffffffffffffffffffffffffffffffffff1673ffffffffffffffffffffffffffffffffffffffff163373ffffffffffffffffffffffffffffffffffffffff161415156123da57600080fd5b600073ffffffffffffffffffffffffffffffffffffffff168173ffffffffffffffffffffffffffffffffffffffff161415151561241657600080fd5b8073ffffffffffffffffffffffffffffffffffffffff16600b60009054906101000a900473ffffffffffffffffffffffffffffffffffffffff1673ffffffffffffffffffffffffffffffffffffffff167f8be0079c531659141344cd1fd0a4f28419497f9722a3daafe3b4186f6b6457e060405160405180910390a380600b60006101000a81548173ffffffffffffffffffffffffffffffffffffffff021916908373ffffffffffffffffffffffffffffffffffffffff16021790555050565b6000806124e28361170c565b90508073ffffffffffffffffffffffffffffffffffffffff168473ffffffffffffffffffffffffffffffffffffffff16148061255157508373ffffffffffffffffffffffffffffffffffffffff1661253984610f5d565b73ffffffffffffffffffffffffffffffffffffffff16145b80612562575061256181856122ea565b5b91505092915050565b8173ffffffffffffffffffffffffffffffffffffffff1661258b8261170c565b73ffffffffffffffffffffffffffffffffffffffff161415156125ad57600080fd5b600073ffffffffffffffffffffffffffffffffffffffff166001600083815260200190815260200160002060009054906101000a900473ffffffffffffffffffffffffffffffffffffffff1673ffffffffffffffffffffffffffffffffffffffff161415156126d05760006001600083815260200190815260200160002060006101000a81548173ffffffffffffffffffffffffffffffffffffffff021916908373ffffffffffffffffffffffffffffffffffffffff160217905550600073ffffffffffffffffffffffffffffffffffffffff168273ffffffffffffffffffffffffffffffffffffffff167f8c5be1e5ebec7d5bd14f71427d1e84f3dd0314c0f7b2291e5b200ac8c7c3b925836040518082815260200191505060405180910390a35b5050565b60008060006126e38585612feb565b6007600085815260200190815260200160002054925061274f6001600660008873ffffffffffffffffffffffffffffffffffffffff1673ffffffffffffffffffffffffffffffffffffffff1681526020019081526020016000208054905061311990919063ffffffff16565b9150600660008673ffffffffffffffffffffffffffffffffffffffff1673ffffffffffffffffffffffffffffffffffffffff1681526020019081526020016000208281548110151561279d57fe5b9060005260206000200154905080600660008773ffffffffffffffffffffffffffffffffffffffff1673ffffffffffffffffffffffffffffffffffffffff168152602001908152602001600020848154811015156127f757fe5b90600052602060002001819055506000600660008773ffffffffffffffffffffffffffffffffffffffff1673ffffffffffffffffffffffffffffffffffffffff1681526020019081526020016000208381548110151561285357fe5b9060005260206000200181905550600660008673ffffffffffffffffffffffffffffffffffffffff1673ffffffffffffffffffffffffffffffffffffffff1681526020019081526020016000208054809190600190036128b39190613490565b50600060076000868152602001908152602001600020819055508260076000838152602001908152602001600020819055505050505050565b60006128f88383613132565b600660008473ffffffffffffffffffffffffffffffffffffffff1673ffffffffffffffffffffffffffffffffffffffff168152602001908152602001600020805490509050600660008473ffffffffffffffffffffffffffffffffffffffff1673ffffffffffffffffffffffffffffffffffffffff168152602001908152602001600020829080600181540180825580915050906001820390600052602060002001600090919290919091505550806007600084815260200190815260200160002081905550505050565b612a1581601160008673ffffffffffffffffffffffffffffffffffffffff1673ffffffffffffffffffffffffffffffffffffffff1681526020019081526020016000205461311990919063ffffffff16565b601160008573ffffffffffffffffffffffffffffffffffffffff1673ffffffffffffffffffffffffffffffffffffffff16815260200190815260200160002081905550612aaa81601160008573ffffffffffffffffffffffffffffffffffffffff1673ffffffffffffffffffffffffffffffffffffffff16815260200190815260200160002054612f7890919063ffffffff16565b601160008473ffffffffffffffffffffffffffffffffffffffff1673ffffffffffffffffffffffffffffffffffffffff16815260200190815260200160002081905550505050565b6000612afc6134bc565b612b046134bc565b601084815481101515612b1357fe5b90600052602060002090600702019250601260008773ffffffffffffffffffffffffffffffffffffffff1673ffffffffffffffffffffffffffffffffffffffff16815260200190815260200160002060a0604051908101604052908160008201548152602001600182015481526020016002820154600019166000191681526020016003820160009054906101000a900460ff161515151581526020016003820160019054906101000a900460ff1660ff1660ff16815250509150601260008673ffffffffffffffffffffffffffffffffffffffff1673ffffffffffffffffffffffffffffffffffffffff16815260200190815260200160002060a0604051908101604052908160008201548152602001600182015481526020016002820154600019166000191681526020016003820160009054906101000a900460ff161515151581526020016003820160019054906101000a900460ff1660ff1660ff16815250509050600f60009054906101000a900460ff1615612ce25781606001518015612ca157508060600151155b15612ce15760018360020160006101000a81548160ff021916908315150217905550612cd8600e5442612f7890919063ffffffff16565b83600501819055505b5b428360040181905550505050505050565b80612cfe33826124d6565b1515612d0957600080fd5b612d258484846020604051908101604052806000815250611f5b565b50505050565b60006001601260008473ffffffffffffffffffffffffffffffffffffffff1673ffffffffffffffffffffffffffffffffffffffff16815260200190815260200160002060030160019054906101000a900460ff1660ff16149050919050565b600080612dac8573ffffffffffffffffffffffffffffffffffffffff1661328a565b1515612dbb5760019150612f6f565b8473ffffffffffffffffffffffffffffffffffffffff1663f0b9e5ba8786866040518463ffffffff167c0100000000000000000000000000000000000000000000000000000000028152600401808473ffffffffffffffffffffffffffffffffffffffff1673ffffffffffffffffffffffffffffffffffffffff16815260200183815260200180602001828103825283818151815260200191508051906020019080838360005b83811015612e7d578082015181840152602081019050612e62565b50505050905090810190601f168015612eaa5780820380516001836020036101000a031916815260200191505b50945050505050602060405180830381600087803b158015612ecb57600080fd5b505af1158015612edf573d6000803e3d6000fd5b505050506040513d6020811015612ef557600080fd5b8101908080519060200190929190505050905063f0b9e5ba7c0100000000000000000000000000000000000000000000000000000000027bffffffffffffffffffffffffffffffffffffffffffffffffffffffff1916817bffffffffffffffffffffffffffffffffffffffffffffffffffffffff19161491505b50949350505050565b60008183019050828110151515612f8b57fe5b80905092915050565b612f9e828261329d565b600880549050600960008381526020019081526020016000208190555060088190806001815401808255809150509060018203906000526020600020016000909192909190915055505050565b8173ffffffffffffffffffffffffffffffffffffffff1661300b8261170c565b73ffffffffffffffffffffffffffffffffffffffff1614151561302d57600080fd5b6130806001600260008573ffffffffffffffffffffffffffffffffffffffff1673ffffffffffffffffffffffffffffffffffffffff1681526020019081526020016000205461311990919063ffffffff16565b600260008473ffffffffffffffffffffffffffffffffffffffff1673ffffffffffffffffffffffffffffffffffffffff16815260200190815260200160002081905550600080600083815260200190815260200160002060006101000a81548173ffffffffffffffffffffffffffffffffffffffff021916908373ffffffffffffffffffffffffffffffffffffffff1602179055505050565b600082821115151561312757fe5b818303905092915050565b600073ffffffffffffffffffffffffffffffffffffffff1660008083815260200190815260200160002060009054906101000a900473ffffffffffffffffffffffffffffffffffffffff1673ffffffffffffffffffffffffffffffffffffffff1614151561319f57600080fd5b8160008083815260200190815260200160002060006101000a81548173ffffffffffffffffffffffffffffffffffffffff021916908373ffffffffffffffffffffffffffffffffffffffff1602179055506132436001600260008573ffffffffffffffffffffffffffffffffffffffff1673ffffffffffffffffffffffffffffffffffffffff16815260200190815260200160002054612f7890919063ffffffff16565b600260008473ffffffffffffffffffffffffffffffffffffffff1673ffffffffffffffffffffffffffffffffffffffff168152602001908152602001600020819055505050565b600080823b905060008111915050919050565b600073ffffffffffffffffffffffffffffffffffffffff168273ffffffffffffffffffffffffffffffffffffffff16141515156132d957600080fd5b6132e382826128ec565b8173ffffffffffffffffffffffffffffffffffffffff16600073ffffffffffffffffffffffffffffffffffffffff167fddf252ad1be2c89b69c2b068fc378daa952ba7f163c4a11628f55a4df523b3ef836040518082815260200191505060405180910390a35050565b828054600181600116156101000203166002900490600052602060002090601f016020900481019282601f1061338e57805160ff19168380011785556133bc565b828001600101855582156133bc579182015b828111156133bb5782518255916020019190600101906133a0565b5b5090506133c991906134f4565b5090565b60e0604051908101604052806060815260200160008152602001600015158152602001600081526020016000815260200160008152602001600080191681525090565b828054600181600116156101000203166002900490600052602060002090601f016020900481019282601f1061345157805160ff191683800117855561347f565b8280016001018555821561347f579182015b8281111561347e578251825591602001919060010190613463565b5b50905061348c91906134f4565b5090565b8154818355818111156134b7578183600052602060002091820191016134b691906134f4565b5b505050565b60a060405190810160405280600081526020016000815260200160008019168152602001600015158152602001600060ff1681525090565b61351691905b808211156135125760008160009055506001016134fa565b5090565b905600a165627a7a723058204b15393b94911fa84e076768e77d675b544e0c7dd7a7a8b535665467a1a267040029",
  "source": "pragma solidity ^0.4.23;\n\nimport 'openzeppelin-solidity/contracts/token/ERC721/ERC721Token.sol';\nimport 'openzeppelin-solidity/contracts/ownership/Ownable.sol';\n\ncontract SecurityToken is ERC721Token, Ownable {\n  bytes32 public jurisdiction = \"US\";\n  bytes32 public regType = \"Reg S\";\n  uint256 public defaultHoldingPeriod = 365 days;\n  bool public comformsToRule144 = true;\n\n  struct SharesData {\n    string legend;\n    uint256 value;\n    bool restricted;\n    uint256 mintDate;\n    uint256 lastTransferDate;\n    uint256 holdingPeriodEnd;\n    bytes32 jurisdiction;\n  }\n\n  SharesData[] public shares;\n\n  mapping (address => uint256) public sharesBalance;\n\n  // Whitelist\n  // An address can only send / receive tokens once their corresponding uint256 > block.number\n  mapping (address => Shareholder) public shareholders;\n\n  //from and to timestamps that an investor can send / receive tokens respectively\n  struct Shareholder {\n      uint256 sellLockupEnd;\n      uint256 buyLockupEnd;\n      bytes32 jurisdiction;\n      bool isAffiliate;\n      uint8 status;\n  }\n\n  ////////////\n\n  constructor(string _name, string _symbol) public\n  ERC721Token(_name, _symbol) {\n\n  }\n\n  function mint(address _shareholder, string _legend, uint256 _value, bool _restricted) public onlyOwner {\n    require(verifyTransferByShareholders(address(this), _shareholder), \"Transfer is not valid\");\n    SharesData memory _share = SharesData({\n      legend: _legend,\n      value: _value,\n      restricted: _restricted,\n      mintDate: now,\n      lastTransferDate: now,\n      holdingPeriodEnd: now.add(defaultHoldingPeriod),\n      jurisdiction: jurisdiction\n      });\n\n    uint256 _sharesId = shares.push(_share) - 1;\n\n    sharesBalance[_shareholder] = sharesBalance[_shareholder].add(_value);\n\n    _mint(_shareholder, _sharesId);\n  }\n\n  // Allows issuer(owner) to change/remove restrictive legend for the selected shares\n  function scrubLegendBySharesId(uint256 _sharesId, string _newLegend ) onlyOwner public {\n    SharesData storage _shares = shares[_sharesId];\n    _shares.legend = _newLegend;\n  }\n\n  function safeTransferFrom(address _from, address _to, uint256 _tokenId) public {\n    // Check restrictions pertaining to the shareholders\n    require(verifyTransferByShareholders(_from, _to), \"Transfer is not valid - Whitelist\");\n    // Check restrictions pertaining to the shares\n    require(verifyTransferByShares(_from, _to, _tokenId), \"Transfer is not valid - Shares\");\n\n    // Keep total shares balances up to date across shareholders\n    transferSharesBalance(_from, _to, shares[_tokenId].value);\n\n    // Modify the shares data if necessary\n    modifySharesData(_from, _to, _tokenId);\n\n    super.safeTransferFrom(_from, _to, _tokenId);\n}\n\n  function getSharesData( uint _sharesId ) public view returns(string, uint256, bool, uint256, uint256, uint256, bytes32){\n    SharesData memory _shares = shares[_sharesId];\n    return (_shares.legend, _shares.value, _shares.restricted, _shares.mintDate, _shares.lastTransferDate, _shares.holdingPeriodEnd, _shares.jurisdiction);\n  }\n\n  function transferSharesBalance(address _from, address _to, uint256 _value) internal {\n    sharesBalance[_from] = sharesBalance[_from].sub(_value);\n    sharesBalance[_to] = sharesBalance[_to].add(_value);\n  }\n\n  ///////////////////////\n  // WHITELIST Methods\n  ///////////////////////\n\n  function modifyWhitelist(\n    address _shareholder,\n    uint256 _sellLockupEnd,\n    uint256 _buyLockupEnd,\n    bytes32 _jurisdiction,\n    bool _isAffiliate,\n    uint8 _status\n    )\n    public onlyOwner {\n\n    shareholders[_shareholder] = Shareholder(_sellLockupEnd, _buyLockupEnd, _jurisdiction, _isAffiliate, _status);\n  }\n\n  function verifyTransferByShareholders(address _from, address _to) public view returns(bool) {\n    if (_from == address(this)) {\n        return onWhitelist(_to) ? true : false;\n    }\n    //Anyone on the whitelist can transfer provided the blocknumber is large enough\n    return ((onWhitelist(_from) && shareholders[_from].sellLockupEnd <= now) &&\n        (onWhitelist(_to) && shareholders[_to].buyLockupEnd <= now)) ? true : false;\n  }\n\n  function verifyTransferByShares(address _from, address _to, uint256 _sharesId) public view returns(bool) {\n    SharesData memory _shares = shares[_sharesId];\n\n    if(_shares.restricted){\n      if(now < _shares.holdingPeriodEnd)\n        return false;\n    }\n    return true;\n  }\n\n  function modifySharesData (address _from, address _to, uint256 _sharesId) internal {\n    SharesData storage _shares = shares[_sharesId];\n    Shareholder memory _shareholderFrom = shareholders[_from];\n    Shareholder memory _shareholderTo = shareholders[_to];\n\n    //If Rule144 is active\n    if(comformsToRule144){\n      // According to US regulation, Rule 144 if a non-Affiliate buys shares from an Affiliate,\n      // the get restricted shares even if they were not restricted under the Affiliate\n      if(_shareholderFrom.isAffiliate && !_shareholderTo.isAffiliate){\n        _shares.restricted = true;\n        _shares.holdingPeriodEnd = now.add(defaultHoldingPeriod);\n      }\n    }\n\n    _shares.lastTransferDate = now;\n\n  }\n\n\n\n  function onWhitelist(address _shareholder) internal view returns(bool) {\n    return (shareholders[_shareholder].status == 1);\n  }\n\n\n}\n",
  "sourcePath": "/Users/pabloruiz55/Documents/Securities721/contracts/SecurityToken.sol",
  "compiler": {
    "name": "solc",
    "version": "0.4.23+commit.124ca40d.Emscripten.clang"
  },
  "schemaVersion": "2.0.0",
  "updatedAt": "2018-05-28T22:11:37.184Z"
}